:1000000000308A005A2800003108F8013002031835
:100010000C283008F7001828F7010830B200B00D9E
:10002000F70D310877020318F700F80DB20B0F280F
:100030000800B6013608073C031C3028B51B2228EF
:1000400008102328081483160810881083128810BB
:1000500083168810831288140310B50DB60A1A2867
:1000600008003108B50019203208B50019203308FE
:10007000B50019203408B500192083160811831221
:100080000811831608118312081508002E30840009
:1000900083130008031959280630F800F701F70BFD
:1000A0004F28F80B4E287B30F700F70B5528800BB4
:1000B0004C28080003081F398300FF30AC0083166A
:1000C00003170908C039890003131F129F1200305B
:1000D0000317880083128701880189018313C030C8
:1000E0000313A200F930A300A430A400B030A5008F
:1000F0009930A6009230A7008230A800F830A900FD
:100100008030AA009030AB00003083168800870052
:100110008312AC000030AC008316870111308312CB
:1001200087001A30A0001D30A1002008B0000A305E
:10013000B100042022307807840083130008AD004A
:100140002008B0000A30B100042022307707840074
:1001500083130008AE002108B0000A30B10004206B
:1001600022307807840083130008AF002108B00014
:100170000A30B1000420223077078400831300087E
:10018000B0002D08B1002E08B2002F08B3003008CF
:10019000B40031200430AD00FA30AE004620AD0B83
:1001A000CC28A003A103200F95280030AC008316B3
:1001B00087011430831287000230A0002008B000AD
:1001C0000A30B1000420223078078400831300082D
:1001D000AD002008B0000A30B100042022307707BB
:1001E000840083130008AE002108B0000A30B1007B
:1001F000042022307807840083130008AF00210810
:10020000B0000A30B1000420223077078400831345
:100210000008B0002D08B1002E08B2002F08B3006E
:100220003008B40031200430AD00FA30AE00462072
:10023000AD0B1529A003A103200FDE280030AC0070
:10024000831687010A30831287001D30A0001A3000
:10025000A1002008B0000A30B10004202230780745
:10026000840083130008AD002008B0000A30B100FC
:10027000042022307707840083130008AE00210891
:10028000B0000A30B10004202230780784008313C4
:100290000008AF002108B0000A30B100042022306D
:1002A0007707840083130008B0002D08B1002E08E2
:1002B000B2002F08B3003008B40031200430AD0084
:1002C000FA30AE004620AD0B6029A003A103210F38
:1002D00029290030AC008316870122308312870061
:1002E0001D30A0000230A1002008B0000A30B1008B
:1002F000042022307807840083130008AD00200812
:10030000B0000A30B1000420223077078400831344
:100310000008AE002108B0000A30B10004202230ED
:100320007807840083130008AF002108B0000A306A
:10033000B100042022307707840083130008B00046
:100340002D08B1002E08B2002F08B3003008B40009
:1003500031200430AD00FA30AE004620AD0BAB29A1
:0C036000A003A103210F74298A28630068
:04400E00E22FFF3F5F
:00000001FF
;PIC16F887
;CRC=3BA4  CREATED="13-Oct-22 18:55"
